:020000041000EA
:100000000000022029120010C30D0010C1120010C0
:10001000FF12001075150010771500100000000089
:100020000000000000000000000000007915001032
:100030007B150010000000007D1500107F150010DA
:10004000D5130010DD130010E5130010ED130010A0
:10005000F5130010FD130010051400100D1400100E
:10006000151400101D140010251400102D1400107C
:10007000351400103D140010451400104D140010EC
:10008000551400106D1500106D1500106D15001041
:100090006D1500106D1500106D1500106D15001018
:1000A0005D140010651400106D140010751400101C
:1000B0007D140010851400106D150010130B001036
:1000C0008D140010951400109D140010A51400103C
:1000D000AD1400106D1500106D1500106D15001099
:1000E0006D1500106D1500106D1500106D150010C8
:1000F000B5140010BD140010C5140010CD1400106C
:10010000D51000106D1500106D1500106D15001044
:100110006D1500106D1500106D1500106D15001097
:100120006D1500106D1500106D1500106D15001087
:100130006D1500106D1500106D1500106D15001077
:100140006D150010D51400106D1500106D15001000
:100150006D1500106D1500106D1500106D15001057
:100160006D1500106D1500106D150010DD140010D8
:10017000E5140010ED140010F5140010FD1400102B
:10018000051500106D1500106D1500106D1500108F
:100190006D1500106D1500106D1500106D15001017
:1001A0006D1500106D1500106D1500106D15001007
:1001B0006D1500106D1500100D15001015150010AF
:1001C0001D150010251500102D15001035150010F7
:1001D00055100010251000103510001045100010AB
:1001E0006D1500106D1500106D1500106D150010C7
:1001F0006D1500106D1500106D1500106D150010B7
:100200006D1500106D1500106D1500103D150010D6
:10021000451500104D150010551500105D15001006
:10022000651500106D1500106D1500106D1500108E
:100230006D1500106D1500106D1500106D15001076
:100240006D1500106D1500106D1500106D15001066
:100250006D1500106D1500106D1500106D15001056
:100260006D1500106D1500106D1500106D15001046
:100270006D1500106D1500106D1500106D15001036
:100280006D1500106D1500106D1500106D15001026
:100290006D1500106D1500106D1500106D15001016
:1002A0006D1500106D1500106D1500106D15001006
:1002B0006D1500106D1500106D1500106D150010F6
:1002C0006D1500106D1500106D1500106D150010E6
:1002D0006D1500106D1500106D1500106D150010D6
:1002E0006D1500106D1500106D1500106D150010C6
:1002F0006D1500106D1500106D1500106D150010B6
:100300006D1500106D1500106D1500106D150010A5
:100310006D1500106D1500106D1500106D15001095
:100320006D1500106D1500106D1500106D15001085
:100330006D1500106D1500106D1500106D15001075
:100340006D1500106D1500106D1500106D15001065
:100350006D1500106D1500106D1500106D15001055
:100360006D1500106D1500106D1500106D15001045
:100370006D1500106D1500106D1500106D15001035
:100380006D1500106D1500106D1500106D15001025
:100390006D1500106D1500106D1500106D15001015
:1003A0006D1500106D1500106D1500106D15001005
:1003B0006D1500106D1500106D1500106D150010F5
:1003C0006D1500106D1500106D1500106D150010E5
:1003D0006D1500106D1500106D1500106D150010D5
:1003E0006D1500106D1500106D1500106D150010C5
:1003F0006D1500106D1500106D150010FFFFFFFF4B
:10040000FFFFFFFFFFFFFFFFFFFFFFFFFEFFFFFFFD
:1004100038B505000C00202C09D340F2C112DFF8DA
:100420003C10DFF83C0000F01DFAAFF30080002024
:100430006101294441F21C02895AC1F3C0110843E9
:10044000E96AE140490011F002010843696AE140AC
:10045000890011F00401084332BD00007C11001036
:10046000AC13001010B50400002C09D14FF45572E4
:10047000DFF8EC13DFF8DC0300F0F4F9AFF30080F1
:10048000207CA168C877E068002809D1206800288E
:1004900006D000230122616820002468A04749E0BB
:1004A000A068217C4901084441F218014158A06824
:1004B000227C5201104441F21C02825A12F0800246
:1004C000D2B2D209E068081A40091100C9B2002965
:1004D00006D1002801D0401E02E094F91400401E0D
:1004E0000100C9B294F9113009B21BB299420BD183
:1004F00094F9131094F9143049B2994202D194F945
:1005000013300BE0002309E00100C9B294F9113067
:10051000CB1A002B02D594F914105B186074E07CA0
:10052000C01AE0742068002804D0D2B261682000AC
:100530002468A04710BD10B5DFF82043002120003B
:10054000FFF766FF400704D5DFF80C030068FFF7EC
:1005500089FF10212000FFF75BFF400704D5DFF87B
:10056000F802006CFFF77EFF10BD10B5DFF8EC421B
:1005700001212000FFF74CFF400704D5DFF8D80227
:100580004068FFF76FFF11212000FFF741FF400790
:1005900004D5DFF8C402406CFFF764FF10BD10B54E
:1005A000DFF8B84202212000FFF732FF400704D5F0
:1005B000DFF8A4028068FFF755FF12212000FFF743
:1005C00027FF400704D5DFF89002806CFFF74AFF51
:1005D00010BD10B5DFF8844203212000FFF718FF9B
:1005E000400704D5DFF87002C068FFF73BFF132116
:1005F0002000FFF70DFF400704D5DFF85C02C06C58
:10060000FFF730FF10BD10B5DFF850420421200085
:10061000FFF7FEFE400704D5DFF83C020069FFF754
:1006200021FF14212000FFF7F3FE400704D5DFF877
:100630002802006DFFF716FF10BD10B5DFF81C4251
:1006400005212000FFF7E4FE400704D5DFF808028B
:100650004069FFF707FF15212000FFF7D9FE40078B
:1006600004D5DFF8F401406DFFF7FCFE10BD10B5B6
:10067000DFF8E84106212000FFF7CAFE400704D555
:10068000DFF8D4018069FFF7EDFE16212000FFF7A7
:10069000BFFE400704D5DFF8C001806DFFF7E2FE22
:1006A00010BD10B5DFF8B44107212000FFF7B0FE00
:1006B000400704D5DFF8A001C069FFF7D3FE17217A
:1006C0002000FFF7A5FE400704D5DFF88C01C06DC0
:1006D000FFF7C8FE10BD10B5DFF8804108212000EB
:1006E000FFF796FE400704D5DFF86C01006AFFF7BC
:1006F000B9FE18212000FFF78BFE400703D55648AE
:10070000006EFFF7AFFE10BD10B5DFF850410921B4
:100710002000FFF77DFE400703D54F48406AFFF7F2
:10072000A1FE19212000FFF773FE400703D54A48B8
:10073000406EFFF797FE10BD10B5DFF820410A218B
:100740002000FFF765FE400703D54348806AFFF7A6
:1007500089FE1A212000FFF75BFE400703D53E48C3
:10076000806EFFF77FFE10BD10B5DFF8F0400B2163
:100770002000FFF74DFE400703D53748C06AFFF75A
:1007800071FE1B212000FFF743FE400703D53248CE
:10079000C06EFFF767FE10BD10B5DFF8C0400C213A
:1007A0002000FFF735FE400703D52B48006BFFF70D
:1007B00059FE1C212000FFF72BFE400703D52648D9
:1007C000006FFFF74FFE10BD10B5244C0D21200027
:1007D000FFF71EFE400703D51F48406BFFF742FEA0
:1007E0001D212000FFF714FE400703D51A48406F73
:1007F000FFF738FE10BD10B5184C0E212000FFF792
:1008000007FE400703D51448806BFFF72BFE1E211F
:100810002000FFF7FDFD400703D50F48806FFFF76D
:1008200021FE10BD10B50D4C0F212000FFF7F0FD8B
:10083000400703D50848C06BFFF714FE1F212000B6
:10084000FFF7E6FD400703D50348C06FFFF70AFE38
:1008500010BD0000BC1300103000000000800040FC
:100860007C11001000B583B00091019202906A469D
:1008700004491820ABBE002801D100F005F803B0F0
:1008800000BD00BF10100200012000F01DB830B400
:10089000002513E050F8042BD30744BFA9F101034E
:1008A0009A18091F042942F8045BFAD213468C07F0
:1008B00044BF15809B1CC90748BF1D7050F8041B1E
:1008C0000029E7D130BC704780B5AFF30080024A01
:1008D00011001820ABBEFBE72600020038B504006B
:1008E0000D002000C0B2002808D0022823D014D365
:1008F00004283CD02DD3052847D054E0DFF830023F
:10090000016851F4806101600721202000F018F98E
:100910000721212000F014F945E08548016851F4D1
:10092000006101600321812000F00AF90321802089
:1009300000F006F937E07E48016851F4805101600B
:100940000321912000F0FCF80321902000F0F8F83A
:1009500029E07748016851F40051016003218520A6
:1009600000F0EEF80321842000F0EAF81BE0714863
:10097000016851F4806101600821992000F0E0F8DD
:100980000921982000F0DCF80DE06A48016851F474
:10099000006101600321892000F0D2F80321882042
:1009A00000F0CEF8FFE764492000C0B251F8200003
:1009B000C07810F0F3002200D2B251F82220D0709B
:1009C0005E4B1A684FF47A7042432801B2FBF0F292
:1009D000100080B2B0F5005F01DB41F6FF721B68CA
:1009E0004FF4FA604343B3FBF5F013009BB2B0EB56
:1009F000031080B24300180080B2202800DB1F23C0
:100A00002000C0B251F82000057815F0E005100074
:100A100080B2000A05432000C0B251F820000570E2
:100A20002000C0B251F8200042702000C0B251F83E
:100A30002000807A10F0E00003432000C0B251F89B
:100A4000200083722000C0B251F82000807810F09E
:100A5000EC002200D2B251F8222090702000C0B2E7
:100A600051F8200080782200D2B251F822209070F4
:100A70002000C0B251F8200080782200D2B251F894
:100A8000222090702000C0B251F82000007810F0B1
:100A9000DF002200D2B251F8222010702000C0B234
:100AA00051F8200000782200D2B251F822201070B4
:100AB0002000C0B251F82000007C50F088002200D5
:100AC000D2B251F8222010742000C0B251F8200098
:100AD000407C50F0C0002200D2B251F82220507465
:100AE0002000C0B251F82000C07850F00C00E4B2F1
:100AF00051F82410C87031BD0F4A0300DBB252F820
:100B000023301B791B06F7D5C0B252F82000C17103
:100B1000704710B5084C20680079800604D520681D
:100B2000C1790020FFF7E8FF2068007910BD0000C0
:100B3000348004402880044000130010100000009E
:100B400070B41F4B1C684FF400750200D2B25209FA
:100B500095402C431C601B4A0300DBB25B1152F82A
:100B600023300400E4B214F01F040500EDB26D114F
:100B700052F825500600F6B216F01F0655F826501A
:100B800035F4706543F824500300DBB25B1152F872
:100B900023300400E4B214F01F040500EDB26D111F
:100BA00052F82520C0B210F01F0052F820000902B0
:100BB00011F47061014343F8241070BC704700BF0A
:100BC000388004406813001080B5A22035490870B1
:100BD0003548017851F06001017034480078C0B2A6
:100BE0008028FAD100F01EF800F027F8304831498B
:100BF000086031483149086031483249086032495B
:100C000008603248324908604EF2EF70314908609E
:100C100045F6C640304908605FF4E1310020FFF737
:100C20005DFE01BD2D48017811F0F00101702C48E6
:100C3000017851F028010170704710B429488021D3
:100C4000017029490A7812F00C02082AF9D1274AC2
:100C5000137813F0BF0313700B789B06FCD4244B5E
:100C60001C7854F003041C70147854F016041470AB
:100C70001C7854F040041C700B785B06FCD513788C
:100C800053F0400313700A789206FCD5027812F0F4
:100C90003F0202700878C0F381000328FAD110BC2B
:100CA0007047000000E0074001E0074003E0074014
:100CB000000039014480044060F6270E0400000063
:100CC000BC9F0300080000000C000000DECF010004
:100CD0001000000014000000180000000050064042
:100CE00001400640004006400640064005400640E0
:100CF00004400640BFF34F8FBFF36F8F0020284999
:100D00000860BFF34F8FBFF36F8F2648016851F41F
:100D100000310160BFF34F8FBFF36F8F704710B486
:100D2000002021490860BFF34F8F20480168C1F3BC
:100D30004E32C1F3C90343F6E07010EA421050EAA4
:100D400083701B4C20601800431E0028F3D1100054
:100D5000421E0028EDD1BFF34F8F1248016851F4B5
:100D600080310160BFF34F8FBFF36F8F10BC7047AE
:100D700080B51048016851F4700101600E484CF2D2
:100D8000205101804DF6281101804FF4E9700B4984
:100D90000880FFF7AFFFFFF7C2FF00F011F801BDB9
:100DA00050EF00E014ED00E084ED00E080ED00E0A5
:100DB00060EF00E088ED00E00E20054000200540D7
:100DC0007047FEE70068C00FC0B2704738B5040036
:100DD0000D002000FFF7F6FF002805D029002000B5
:100DE0001F4A1268904704E0290020001F4A126839
:100DF000904731BD10B51C4C2068002807D14FF436
:100E0000DC6218491A48FFF72DFDAFF30080216816
:100E10001848FFF7DBFF10BD10B5134C60680028C1
:100E200007D14FF4DD620F491348FFF71BFDAFF305
:100E3000008061681148FFF7C9FF10BD10B50A4C6A
:100E4000A068002807D14FF4DE6206490C48FFF77E
:100E500009FDAFF30080A1680A48FFF7B7FF10BD96
:100E600028000000501100101C0000002C000000A1
:100E70007C13001000C002408C13001000D0024010
:100E80009C13001000C00A4010B51C4C20680028BC
:100E900007D140F2BA721B491B48FFF7E3FCAFF3DE
:100EA000008021681948164A1268904710BD10B595
:100EB000124C6068002807D14FF4F96211491448B8
:100EC000FFF7D0FCAFF30080616812480C4A12684B
:100ED000904710BD10B5094CA068002807D140F21A
:100EE000D67208490C48FFF7BDFCAFF30080A1683B
:100EF0000A48034A1268904710BD0000C400000071
:100F0000D0000000A811001018130010004002408B
:100F10002C130010005002404013001000400A4003
:100F200080B51B4841681C481A4A1268904701BDA9
:100F300080B5FFF7F5FF01BD80B5154881681748FA
:100F4000144A1268904701BD80B5FFF7F5FF01BD57
:100F500080B50F48C16812480E4A1268904701BD1B
:100F600080B5FFF7F5FF01BD80B5094801690D485F
:100F7000084A1268904701BD80B5FFF7F5FF01BD33
:100F800080B5034841690848024A1268904701BD8C
:100F9000E4000000FC00000000B0064000C0064075
:100FA00000D0064000A00E4000B00E4080B5FFF714
:100FB000E7FF01BD70B504000E00174D2000C0B260
:100FC000401155F82000406914F01F01C840C007C7
:100FD00006D4492211491248FFF744FCAFF30080C0
:100FE000F6B2002E0BD12000C0B2401155F82000FF
:100FF000012114F01F0411FA04F484600AE02000B7
:10100000C0B2401155F82000012114F01F0411FA5C
:1010100004F4446070BD000054130010001200106E
:101020001411001080B5104801681048104A126869
:10103000904701BD80B50C4801680C480D4A126804
:10104000904701BD80B50848016808480A4A1268FF
:10105000904701BD80B5044801680448014A126800
:10106000904701BDC0000000B000000000000C402F
:10107000B4000000B8000000BC00000080B5C278D9
:10108000D20602D48278920604D5DFF818201268BE
:10109000904703E0DFF82C2012689047BFF34F8F92
:1010A00001BD0000DC00000080B50748016807486A
:1010B000FFF7E4FF01BD80B5034841680448FFF72E
:1010C000DDFF01BDE0000000D4000000006006402C
:1010D0000070064010B501200C4908600C4C2078C7
:1010E000022801D1002020702078002803D100219F
:1010F0009D20FFF75FFF2078012803D101219D206B
:10110000FFF758FF2078401C207010BD0C71034081
:10111000000100002828284750494F585B282870B4
:1011200074786E293E3E35295D2D3E504444522947
:101130003E3E2828287074786E292630783166293A
:101140002929263078303129203D3D2047504F0055
:10115000443A5C66696C65735C6769745C4B5635D0
:10116000385F4C69625C4C69625C7372635C667385
:101170006C5F647370692E6300000000443A5C6623
:10118000696C65735C6769745C4B5635385F4C6994
:10119000625C4C69625C7372635C66736C5F65640D
:1011A0006D612E6300000000443A5C66696C6573F3
:1011B0005C6769745C4B5635385F4C69625C4C699E
:1011C000625C7372635C66736C5F666C65786361A6
:1011D0006E2E630030B450F8041B79B10268436886
:1011E00002440830DC0744BFA9F10104E31852F8B7
:1011F000045B43F8045B091FF9D1ECE730BC70478E
:10120000443A5C66696C65735C6769745C4B56351F
:10121000385F4C69625C426F6172645C7372635CDC
:101220006770696F2E63000072B60548054901605A
:101230000A6882F308880448804762B6034800477A
:1012400008ED00E000000010710D0010C91300103F
:1012500010B5074979441831064C7C44163404E033
:101260000A68081D114488470146A142F8D110BD03
:101270002C0000004C0000004EF68851CEF2000118
:10128000086840F470000860BFF34F8FBFF36F8FA2
:101290004FF00070E1EE100A70470000F3F5FFFF19
:1012A000FC000000080000000000000029FFFFFF14
:1012B00004000000BC020000040000000000000068
:1012C000FEE7000000F00DF8002801D0FFF7C0FF96
:1012D000AFF300800020AFF3008000F004F800F0CE
:1012E00007F80120704780B5FFF76EFC002002BDB3
:1012F00000F000B807463846FFF7E6FAFBE7FEE7DE
:1013000000A0064000B0064000C0064000D00640E5
:1013100000A00E4000B00E40735F666C657863619C
:101320006E48616E646C655B305D0000735F666C77
:10133000657863616E48616E646C655B315D000069
:10134000735F666C657863616E48616E646C655B43
:10135000325D000000F00F4040F00F4080F00F4081
:10136000C0F00F4000F10F400090044000A0044086
:1013700000B0044000C0044000D00440675F6473C4
:10138000706948616E646C655B305D00675F6473B3
:10139000706948616E646C655B315D00675F6473A2
:1013A000706948616E646C655B325D006368616E94
:1013B0006E656C203C2028333229000068616E6421
:1013C0006C6520213D203000AFF30080FFF754FF13
:1013D000FFF778FF00480047370500100048004736
:1013E0006B050010004800479F05001000480047AB
:1013F000D3050010004800470706001000480047CA
:101400003B060010004800476F06001000480047E8
:10141000A306001000480047D70600100048004708
:10142000090700100048004739070010004800472E
:10143000690700100048004799070010004800475E
:10144000C907001000480047F70700100048004790
:1014500025080010004800476D150010004800479F
:10146000A910001000480047B710001000480047BE
:10147000F50D001000480047190E00100048004705
:10148000AD0F0010004800476D15001000480047E0
:101490006D15001000480047310F0010004800474C
:1014A0006D15001000480047490F00100048004724
:1014B0006D15001000480047610F001000480047FC
:1014C0006D15001000480047790F001000480047D4
:1014D0006D150010004800473D0E00100048004701
:1014E000890E001000480047890E00100048004790
:1014F000890E001000480047890E00100048004780
:10150000890E001000480047890E0010004800476F
:10151000AF0E001000480047AF0E00100048004713
:10152000AF0E001000480047AF0E00100048004703
:10153000AF0E001000480047AF0E001000480047F3
:10154000D50E001000480047D50E00100048004797
:10155000D50E001000480047D50E00100048004787
:10156000D50E001000480047D50E0010FFF7FEBF53
:1015700000004001FEE7FEE7FEE7FEE7FEE7FEE7CC
:04000005100013C90B
:00000001FF
